{
  "contractName": "IdentityRegistry",
  "abi": [
    {
      "anonymous": false,
      "inputs": [
        {
          "indexed": true,
          "internalType": "address",
          "name": "user",
          "type": "address"
        },
        {
          "indexed": false,
          "internalType": "string",
          "name": "name",
          "type": "string"
        },
        {
          "indexed": false,
          "internalType": "string",
          "name": "idHash",
          "type": "string"
        }
      ],
      "name": "IdentityRegistered",
      "type": "event"
    },
    {
      "inputs": [
        {
          "internalType": "address",
          "name": "",
          "type": "address"
        }
      ],
      "name": "identities",
      "outputs": [
        {
          "internalType": "string",
          "name": "name",
          "type": "string"
        },
        {
          "internalType": "string",
          "name": "idHash",
          "type": "string"
        }
      ],
      "stateMutability": "view",
      "type": "function",
      "constant": true
    },
    {
      "inputs": [
        {
          "internalType": "string",
          "name": "name",
          "type": "string"
        },
        {
          "internalType": "string",
          "name": "idHash",
          "type": "string"
        }
      ],
      "name": "registerIdentity",
      "outputs": [],
      "stateMutability": "nonpayable",
      "type": "function"
    },
    {
      "inputs": [
        {
          "internalType": "address",
          "name": "user",
          "type": "address"
        }
      ],
      "name": "getIdentity",
      "outputs": [
        {
          "internalType": "string",
          "name": "",
          "type": "string"
        },
        {
          "internalType": "string",
          "name": "",
          "type": "string"
        }
      ],
      "stateMutability": "view",
      "type": "function",
      "constant": true
    }
  ],
  "bytecode": "0x608060405234801561001057600080fd5b50610868806100206000396000f3fe608060405234801561001057600080fd5b50600436106100415760003560e01c80630be8293f146100465780632fea7b8114610062578063f653b81e14610093575b600080fd5b610060600480360381019061005b91906105ad565b6100c4565b005b61007c60048036038101906100779190610584565b6101a8565b60405161008a929190610652565b60405180910390f35b6100ad60048036038101906100a89190610584565b610330565b6040516100bb929190610652565b60405180910390f35b6040518060400160405280838152602001828152506000803373ffffffffffffffffffffffffffffffffffffffff1673ffffffffffffffffffffffffffffffffffffffff1681526020019081526020016000206000820151816000019080519060200190610133929190610464565b506020820151816001019080519060200190610150929190610464565b509050503373ffffffffffffffffffffffffffffffffffffffff167fdc8c7948efd57970d2239c1bd917b1aacccb1af7b9d31499bb5ed1f80a792527838360405161019c929190610652565b60405180910390a25050565b60608060008060008573ffffffffffffffffffffffffffffffffffffffff1673ffffffffffffffffffffffffffffffffffffffff1681526020019081526020016000206040518060400160405290816000820180546102069061077a565b80601f01602080910402602001604051908101604052809291908181526020018280546102329061077a565b801561027f5780601f106102545761010080835404028352916020019161027f565b820191906000526020600020905b81548152906001019060200180831161026257829003601f168201915b505050505081526020016001820180546102989061077a565b80601f01602080910402602001604051908101604052809291908181526020018280546102c49061077a565b80156103115780601f106102e657610100808354040283529160200191610311565b820191906000526020600020905b8154815290600101906020018083116102f457829003601f168201915b5050505050815250509050806000015181602001519250925050915091565b60006020528060005260406000206000915090508060000180546103539061077a565b80601f016020809104026020016040519081016040528092919081815260200182805461037f9061077a565b80156103cc5780601f106103a1576101008083540402835291602001916103cc565b820191906000526020600020905b8154815290600101906020018083116103af57829003601f168201915b5050505050908060010180546103e19061077a565b80601f016020809104026020016040519081016040528092919081815260200182805461040d9061077a565b801561045a5780601f1061042f5761010080835404028352916020019161045a565b820191906000526020600020905b81548152906001019060200180831161043d57829003601f168201915b5050505050905082565b8280546104709061077a565b90600052602060002090601f01602090048101928261049257600085556104d9565b82601f106104ab57805160ff19168380011785556104d9565b828001600101855582156104d9579182015b828111156104d85782518255916020019190600101906104bd565b5b5090506104e691906104ea565b5090565b5b808211156105035760008160009055506001016104eb565b5090565b600061051a610515846106ba565b610689565b90508281526020810184848401111561053257600080fd5b61053d848285610738565b509392505050565b6000813590506105548161081b565b92915050565b600082601f83011261056b57600080fd5b813561057b848260208601610507565b91505092915050565b60006020828403121561059657600080fd5b60006105a484828501610545565b91505092915050565b600080604083850312156105c057600080fd5b600083013567ffffffffffffffff8111156105da57600080fd5b6105e68582860161055a565b925050602083013567ffffffffffffffff81111561060357600080fd5b61060f8582860161055a565b9150509250929050565b6000610624826106ea565b61062e81856106f5565b935061063e818560208601610747565b6106478161080a565b840191505092915050565b6000604082019050818103600083015261066c8185610619565b905081810360208301526106808184610619565b90509392505050565b6000604051905081810181811067ffffffffffffffff821117156106b0576106af6107db565b5b8060405250919050565b600067ffffffffffffffff8211156106d5576106d46107db565b5b601f19601f8301169050602081019050919050565b600081519050919050565b600082825260208201905092915050565b600061071182610718565b9050919050565b600073ffffffffffffffffffffffffffffffffffffffff82169050919050565b82818337600083830152505050565b60005b8381101561076557808201518184015260208101905061074a565b83811115610774576000848401525b50505050565b6000600282049050600182168061079257607f821691505b602082108114156107a6576107a56107ac565b5b50919050565b7f4e487b7100000000000000000000000000000000000000000000000000000000600052602260045260246000fd5b7f4e487b7100000000000000000000000000000000000000000000000000000000600052604160045260246000fd5b6000601f19601f8301169050919050565b61082481610706565b811461082f57600080fd5b5056fea26469706673582212201d43f781b47927f81a6f34959410ba4b00be1c24cc8b2728c18ddb32e24a9f6a64736f6c63430008000033",
  "immutableReferences": {},
  "source": "// SPDX-License-Identifier: MIT\npragma solidity ^0.8.0;\n\ncontract IdentityRegistry {\n    // Define a simple Identity structure.\n    struct Identity {\n        string name;\n        string idHash;\n    }\n\n    // Mapping from user address to their Identity.\n    mapping(address => Identity) public identities;\n\n    // Event emitted when a new identity is registered.\n    event IdentityRegistered(address indexed user, string name, string idHash);\n\n    // Register or update the identity for the caller.\n    function registerIdentity(string memory name, string memory idHash) public {\n        identities[msg.sender] = Identity(name, idHash);\n        emit IdentityRegistered(msg.sender, name, idHash);\n    }\n\n    // Retrieve the identity for a given address.\n    function getIdentity(address user) public view returns (string memory, string memory) {\n        Identity memory identity = identities[user];\n        return (identity.name, identity.idHash);\n    }\n}",
  "sourcePath": "C:\\Blessan E\\HackAI\\truffle smart contract\\contracts\\IdentityRegistry.sol",
  "compiler": {
    "name": "solc",
    "version": "0.8.0+commit.c7dfd78e.Emscripten.clang"
  },
  "schemaVersion": "3.4.16",
  "updatedAt": "2025-02-20T17:00:51.124Z",
  "networkType": "ethereum",
  "devdoc": {
    "kind": "dev",
    "methods": {},
    "version": 1
  },
  "userdoc": {
    "kind": "user",
    "methods": {},
    "version": 1
  }
}